{
  "contractName": "Integers",
  "abi": [
    {
      "constant": true,
      "inputs": [
        {
          "name": "_value",
          "type": "string"
        }
      ],
      "name": "parseInt",
      "outputs": [
        {
          "name": "_ret",
          "type": "uint256"
        }
      ],
      "payable": false,
      "stateMutability": "pure",
      "type": "function",
      "signature": "0x42346c5e"
    },
    {
      "constant": true,
      "inputs": [
        {
          "name": "_base",
          "type": "uint8"
        }
      ],
      "name": "toByte",
      "outputs": [
        {
          "name": "_ret",
          "type": "bytes1"
        }
      ],
      "payable": false,
      "stateMutability": "pure",
      "type": "function",
      "signature": "0xa86b73f0"
    }
  ],
  "bytecode": "0x6103e6610030600b82828239805160001a6073146000811461002057610022565bfe5b5030600052607381538281f3fe7300000000000000000000000000000000000000003014608060405260043610610063576000357c0100000000000000000000000000000000000000000000000000000000900463ffffffff16806342346c5e14610068578063a86b73f014610137575b600080fd5b6101216004803603602081101561007e57600080fd5b810190808035906020019064010000000081111561009b57600080fd5b8201836020820111156100ad57600080fd5b803590602001918460018302840111640100000000831117156100cf57600080fd5b91908080601f016020809104026020016040519081016040528093929190818152602001838380828437600081840152601f19601f8201169050808301925050505050505091929192905050506101c0565b6040518082815260200191505060405180910390f35b6101666004803603602081101561014d57600080fd5b81019080803560ff1690602001909291905050506103a7565b60405180827effffffffffffffffffffffffffffffffffffffffffffffffffffffffffffff19167effffffffffffffffffffffffffffffffffffffffffffffffffffffffffffff1916815260200191505060405180910390f35b600060608290506000600190506000600183510390505b600081101580156101e85750825181105b1561039f57603083828151811015156101fd57fe5b9060200101517f010000000000000000000000000000000000000000000000000000000000000090047f0100000000000000000000000000000000000000000000000000000000000000027f0100000000000000000000000000000000000000000000000000000000000000900460ff16101580156102fb57506039838281518110151561028757fe5b9060200101517f010000000000000000000000000000000000000000000000000000000000000090047f0100000000000000000000000000000000000000000000000000000000000000027f0100000000000000000000000000000000000000000000000000000000000000900460ff1611155b151561030357fe5b816030848381518110151561031457fe5b9060200101517f010000000000000000000000000000000000000000000000000000000000000090047f0100000000000000000000000000000000000000000000000000000000000000027f010000000000000000000000000000000000000000000000000000000000000090040360ff160284019350600a820291508080600190039150506101d7565b505050919050565b600060015901828153805191505091905056fea165627a7a7230582040f2a64423d5e2760ce3bf30386ee69d4b41182836f76de851b0b9971e9dc39f0029",
  "source": "pragma solidity ^0.5.0;\r\n\r\nlibrary Integers {\r\n    /**\r\n     * Parse Int\r\n     * \r\n     * Converts an ASCII string value into an uint as long as the string \r\n     * its self is a valid unsigned integer\r\n     * \r\n     * @param _value The ASCII string to be converted to an unsigned integer\r\n     * @return uint The unsigned value of the ASCII string\r\n     */\r\n    function parseInt(string memory _value)\r\n        public\r\n        pure\r\n        returns (uint _ret) {\r\n        bytes memory _bytesValue = bytes(_value);\r\n        uint j = 1;\r\n        for(uint i = _bytesValue.length-1; i >= 0 && i < _bytesValue.length; i--) {\r\n            assert(uint8(_bytesValue[i]) >= 48 && uint8(_bytesValue[i]) <= 57);\r\n            _ret += (uint8(_bytesValue[i]) - 48)*j;\r\n            j*=10;\r\n        }\r\n    }\r\n\r\n    /**\r\n     * To String\r\n     * \r\n     * Converts an unsigned integer to the ASCII string equivalent value\r\n     * \r\n     * @param _base The unsigned integer to be converted to a string\r\n     * @return string The resulting ASCII string value\r\n     */\r\n    function toString(uint _base)\r\n        internal\r\n        pure\r\n        returns (string memory) {\r\n        bytes memory _tmp = new bytes(32);\r\n        uint i;\r\n        for(i = 0;_base > 0;i++) {\r\n            _tmp[i] = byte(uint8((_base % 10) + 48));\r\n            _base /= 10;\r\n        }\r\n        bytes memory _real = new bytes(i--);\r\n        for(uint j = 0; j < _real.length; j++) {\r\n            _real[j] = _tmp[i--];\r\n        }\r\n        return string(_real);\r\n    }\r\n\r\n    /**\r\n     * To Byte\r\n     *\r\n     * Convert an 8 bit unsigned integer to a byte\r\n     *\r\n     * @param _base The 8 bit unsigned integer\r\n     * @return byte The byte equivalent\r\n     */\r\n    function toByte(uint8 _base)\r\n        public\r\n        pure\r\n        returns (byte _ret) {\r\n        assembly {\r\n            let m_alloc := add(msize(),0x1)\r\n            mstore8(m_alloc, _base)\r\n            _ret := mload(m_alloc)\r\n        }\r\n    }\r\n\r\n    /**\r\n     * To Bytes\r\n     *\r\n     * Converts an unsigned integer to bytes\r\n     *\r\n     * @param _base The integer to be converted to bytes\r\n     * @return bytes The bytes equivalent \r\n     */\r\n    function toBytes(uint _base)\r\n        internal\r\n        pure\r\n        returns (bytes memory _ret) {\r\n        assembly {\r\n            let m_alloc := add(msize(),0x1)\r\n            _ret := mload(m_alloc)\r\n            mstore(_ret, 0x20)\r\n            mstore(add(_ret, 0x20), _base)\r\n        }\r\n    }\r\n}\r\n",
  "sourcePath": "D:/Blockchain/Truffle/primeNft/src/contracts/Integers.sol",
  "compiler": {
    "name": "solc",
    "version": "0.5.0+commit.1d4f565a.Emscripten.clang"
  },
  "schemaVersion": "3.0.2",
  "updatedAt": "2021-04-18T13:50:27.016Z",
  "devdoc": {
    "methods": {
      "parseInt(string)": {
        "params": {
          "_value": "The ASCII string to be converted to an unsigned integer\r"
        },
        "return": "uint The unsigned value of the ASCII string\r"
      },
      "toByte(uint8)": {
        "params": {
          "_base": "The 8 bit unsigned integer\r"
        },
        "return": "byte The byte equivalent\r"
      }
    }
  },
  "userdoc": {
    "methods": {
      "parseInt(string)": {
        "notice": "Parse Int\r \r Converts an ASCII string value into an uint as long as the string \r its self is a valid unsigned integer\r \r"
      },
      "toByte(uint8)": {
        "notice": "To Byte\r      * Convert an 8 bit unsigned integer to a byte\r "
      }
    }
  }
}